{
  "_format": "hh-sol-artifact-1",
  "contractName": "Domains",
  "sourceName": "contracts/Domains.sol",
  "abi": [
    {
      "inputs": [
        {
          "internalType": "string",
          "name": "_tld",
          "type": "string"
        }
      ],
      "stateMutability": "nonpayable",
      "type": "constructor"
    },
    {
      "inputs": [],
      "name": "AlreadyRegistered",
      "type": "error"
    },
    {
      "inputs": [
        {
          "internalType": "string",
          "name": "name",
          "type": "string"
        }
      ],
      "name": "InvalidName",
      "type": "error"
    },
    {
      "inputs": [],
      "name": "Unauthorized",
      "type": "error"
    },
    {
      "anonymous": false,
      "inputs": [
        {
          "indexed": true,
          "internalType": "address",
          "name": "owner",
          "type": "address"
        },
        {
          "indexed": true,
          "internalType": "address",
          "name": "approved",
          "type": "address"
        },
        {
          "indexed": true,
          "internalType": "uint256",
          "name": "tokenId",
          "type": "uint256"
        }
      ],
      "name": "Approval",
      "type": "event"
    },
    {
      "anonymous": false,
      "inputs": [
        {
          "indexed": true,
          "internalType": "address",
          "name": "owner",
          "type": "address"
        },
        {
          "indexed": true,
          "internalType": "address",
          "name": "operator",
          "type": "address"
        },
        {
          "indexed": false,
          "internalType": "bool",
          "name": "approved",
          "type": "bool"
        }
      ],
      "name": "ApprovalForAll",
      "type": "event"
    },
    {
      "anonymous": false,
      "inputs": [
        {
          "indexed": true,
          "internalType": "address",
          "name": "from",
          "type": "address"
        },
        {
          "indexed": true,
          "internalType": "address",
          "name": "to",
          "type": "address"
        },
        {
          "indexed": true,
          "internalType": "uint256",
          "name": "tokenId",
          "type": "uint256"
        }
      ],
      "name": "Transfer",
      "type": "event"
    },
    {
      "inputs": [
        {
          "internalType": "address",
          "name": "to",
          "type": "address"
        },
        {
          "internalType": "uint256",
          "name": "tokenId",
          "type": "uint256"
        }
      ],
      "name": "approve",
      "outputs": [],
      "stateMutability": "nonpayable",
      "type": "function"
    },
    {
      "inputs": [
        {
          "internalType": "address",
          "name": "owner",
          "type": "address"
        }
      ],
      "name": "balanceOf",
      "outputs": [
        {
          "internalType": "uint256",
          "name": "",
          "type": "uint256"
        }
      ],
      "stateMutability": "view",
      "type": "function"
    },
    {
      "inputs": [
        {
          "internalType": "string",
          "name": "",
          "type": "string"
        }
      ],
      "name": "domains",
      "outputs": [
        {
          "internalType": "address",
          "name": "",
          "type": "address"
        }
      ],
      "stateMutability": "view",
      "type": "function"
    },
    {
      "inputs": [
        {
          "internalType": "string",
          "name": "name",
          "type": "string"
        }
      ],
      "name": "getAddress",
      "outputs": [
        {
          "internalType": "address",
          "name": "",
          "type": "address"
        }
      ],
      "stateMutability": "view",
      "type": "function"
    },
    {
      "inputs": [],
      "name": "getAllNames",
      "outputs": [
        {
          "internalType": "string[]",
          "name": "",
          "type": "string[]"
        }
      ],
      "stateMutability": "view",
      "type": "function"
    },
    {
      "inputs": [
        {
          "internalType": "uint256",
          "name": "tokenId",
          "type": "uint256"
        }
      ],
      "name": "getApproved",
      "outputs": [
        {
          "internalType": "address",
          "name": "",
          "type": "address"
        }
      ],
      "stateMutability": "view",
      "type": "function"
    },
    {
      "inputs": [
        {
          "internalType": "string",
          "name": "name",
          "type": "string"
        }
      ],
      "name": "getPrice",
      "outputs": [
        {
          "internalType": "uint256",
          "name": "",
          "type": "uint256"
        }
      ],
      "stateMutability": "pure",
      "type": "function"
    },
    {
      "inputs": [
        {
          "internalType": "string",
          "name": "name",
          "type": "string"
        }
      ],
      "name": "getRecord",
      "outputs": [
        {
          "internalType": "string",
          "name": "",
          "type": "string"
        }
      ],
      "stateMutability": "view",
      "type": "function"
    },
    {
      "inputs": [
        {
          "internalType": "address",
          "name": "owner",
          "type": "address"
        },
        {
          "internalType": "address",
          "name": "operator",
          "type": "address"
        }
      ],
      "name": "isApprovedForAll",
      "outputs": [
        {
          "internalType": "bool",
          "name": "",
          "type": "bool"
        }
      ],
      "stateMutability": "view",
      "type": "function"
    },
    {
      "inputs": [],
      "name": "isOwner",
      "outputs": [
        {
          "internalType": "bool",
          "name": "",
          "type": "bool"
        }
      ],
      "stateMutability": "view",
      "type": "function"
    },
    {
      "inputs": [],
      "name": "name",
      "outputs": [
        {
          "internalType": "string",
          "name": "",
          "type": "string"
        }
      ],
      "stateMutability": "view",
      "type": "function"
    },
    {
      "inputs": [
        {
          "internalType": "uint256",
          "name": "",
          "type": "uint256"
        }
      ],
      "name": "names",
      "outputs": [
        {
          "internalType": "string",
          "name": "",
          "type": "string"
        }
      ],
      "stateMutability": "view",
      "type": "function"
    },
    {
      "inputs": [],
      "name": "owner",
      "outputs": [
        {
          "internalType": "address payable",
          "name": "",
          "type": "address"
        }
      ],
      "stateMutability": "view",
      "type": "function"
    },
    {
      "inputs": [
        {
          "internalType": "uint256",
          "name": "tokenId",
          "type": "uint256"
        }
      ],
      "name": "ownerOf",
      "outputs": [
        {
          "internalType": "address",
          "name": "",
          "type": "address"
        }
      ],
      "stateMutability": "view",
      "type": "function"
    },
    {
      "inputs": [
        {
          "internalType": "string",
          "name": "",
          "type": "string"
        }
      ],
      "name": "records",
      "outputs": [
        {
          "internalType": "string",
          "name": "",
          "type": "string"
        }
      ],
      "stateMutability": "view",
      "type": "function"
    },
    {
      "inputs": [
        {
          "internalType": "string",
          "name": "name",
          "type": "string"
        }
      ],
      "name": "register",
      "outputs": [],
      "stateMutability": "payable",
      "type": "function"
    },
    {
      "inputs": [
        {
          "internalType": "address",
          "name": "from",
          "type": "address"
        },
        {
          "internalType": "address",
          "name": "to",
          "type": "address"
        },
        {
          "internalType": "uint256",
          "name": "tokenId",
          "type": "uint256"
        }
      ],
      "name": "safeTransferFrom",
      "outputs": [],
      "stateMutability": "nonpayable",
      "type": "function"
    },
    {
      "inputs": [
        {
          "internalType": "address",
          "name": "from",
          "type": "address"
        },
        {
          "internalType": "address",
          "name": "to",
          "type": "address"
        },
        {
          "internalType": "uint256",
          "name": "tokenId",
          "type": "uint256"
        },
        {
          "internalType": "bytes",
          "name": "_data",
          "type": "bytes"
        }
      ],
      "name": "safeTransferFrom",
      "outputs": [],
      "stateMutability": "nonpayable",
      "type": "function"
    },
    {
      "inputs": [
        {
          "internalType": "address",
          "name": "operator",
          "type": "address"
        },
        {
          "internalType": "bool",
          "name": "approved",
          "type": "bool"
        }
      ],
      "name": "setApprovalForAll",
      "outputs": [],
      "stateMutability": "nonpayable",
      "type": "function"
    },
    {
      "inputs": [
        {
          "internalType": "string",
          "name": "name",
          "type": "string"
        },
        {
          "internalType": "string",
          "name": "record",
          "type": "string"
        }
      ],
      "name": "setRecord",
      "outputs": [],
      "stateMutability": "nonpayable",
      "type": "function"
    },
    {
      "inputs": [
        {
          "internalType": "bytes4",
          "name": "interfaceId",
          "type": "bytes4"
        }
      ],
      "name": "supportsInterface",
      "outputs": [
        {
          "internalType": "bool",
          "name": "",
          "type": "bool"
        }
      ],
      "stateMutability": "view",
      "type": "function"
    },
    {
      "inputs": [],
      "name": "symbol",
      "outputs": [
        {
          "internalType": "string",
          "name": "",
          "type": "string"
        }
      ],
      "stateMutability": "view",
      "type": "function"
    },
    {
      "inputs": [],
      "name": "tld",
      "outputs": [
        {
          "internalType": "string",
          "name": "",
          "type": "string"
        }
      ],
      "stateMutability": "view",
      "type": "function"
    },
    {
      "inputs": [
        {
          "internalType": "uint256",
          "name": "tokenId",
          "type": "uint256"
        }
      ],
      "name": "tokenURI",
      "outputs": [
        {
          "internalType": "string",
          "name": "",
          "type": "string"
        }
      ],
      "stateMutability": "view",
      "type": "function"
    },
    {
      "inputs": [
        {
          "internalType": "address",
          "name": "from",
          "type": "address"
        },
        {
          "internalType": "address",
          "name": "to",
          "type": "address"
        },
        {
          "internalType": "uint256",
          "name": "tokenId",
          "type": "uint256"
        }
      ],
      "name": "transferFrom",
      "outputs": [],
      "stateMutability": "nonpayable",
      "type": "function"
    },
    {
      "inputs": [
        {
          "internalType": "string",
          "name": "name",
          "type": "string"
        }
      ],
      "name": "valid",
      "outputs": [
        {
          "internalType": "bool",
          "name": "",
          "type": "bool"
        }
      ],
      "stateMutability": "pure",
      "type": "function"
    },
    {
      "inputs": [],
      "name": "withdraw",
      "outputs": [],
      "stateMutability": "nonpayable",
      "type": "function"
    }
  ],
  "bytecode": "0x6080604052604051806108a0016040528061086b81526020016200543d61086b9139600a90805190602001906200003892919062000368565b506040518060400160405280600d81526020017f3c2f746578743e3c2f7376673e00000000000000000000000000000000000000815250600b90805190602001906200008692919062000368565b503480156200009457600080fd5b5060405162005ca838038062005ca88339818101604052810190620000ba9190620005b5565b6040518060400160405280601381526020017f506f7461746f204e616d652053657276696365000000000000000000000000008152506040518060400160405280600381526020017f504e53000000000000000000000000000000000000000000000000000000000081525081600090805190602001906200013e92919062000368565b5080600190805190602001906200015792919062000368565b50505080600990805190602001906200017292919062000368565b5033600760006101000a81548173ffffffffffffffffffffffffffffffffffffffff021916908373ffffffffffffffffffffffffffffffffffffffff160217905550620002926040518060400160405280601e81526020017f257320646f6d61696e2073657276696365206973206465706c6f7965642e000081525060098054620001fd9062000635565b80601f01602080910402602001604051908101604052809291908181526020018280546200022b9062000635565b80156200027c5780601f1062000250576101008083540402835291602001916200027c565b820191906000526020600020905b8154815290600101906020018083116200025e57829003601f168201915b50505050506200029960201b62001b061760201c565b5062000703565b6200033b8282604051602401620002b2929190620006c8565b6040516020818303038152906040527f4b5c4277000000000000000000000000000000000000000000000000000000007bffffffffffffffffffffffffffffffffffffffffffffffffffffffff19166020820180517bffffffffffffffffffffffffffffffffffffffffffffffffffffffff83818316178352505050506200033f60201b60201c565b5050565b60008151905060006a636f6e736f6c652e6c6f679050602083016000808483855afa5050505050565b828054620003769062000635565b90600052602060002090601f0160209004810192826200039a5760008555620003e6565b82601f10620003b557805160ff1916838001178555620003e6565b82800160010185558215620003e6579182015b82811115620003e5578251825591602001919060010190620003c8565b5b509050620003f59190620003f9565b5090565b5b8082111562000414576000816000905550600101620003fa565b5090565b6000604051905090565b600080fd5b600080fd5b600080fd5b600080fd5b6000601f19601f8301169050919050565b7f4e487b7100000000000000000000000000000000000000000000000000000000600052604160045260246000fd5b620004818262000436565b810181811067ffffffffffffffff82111715620004a357620004a262000447565b5b80604052505050565b6000620004b862000418565b9050620004c6828262000476565b919050565b600067ffffffffffffffff821115620004e957620004e862000447565b5b620004f48262000436565b9050602081019050919050565b60005b838110156200052157808201518184015260208101905062000504565b8381111562000531576000848401525b50505050565b60006200054e6200054884620004cb565b620004ac565b9050828152602081018484840111156200056d576200056c62000431565b5b6200057a84828562000501565b509392505050565b600082601f8301126200059a57620005996200042c565b5b8151620005ac84826020860162000537565b91505092915050565b600060208284031215620005ce57620005cd62000422565b5b600082015167ffffffffffffffff811115620005ef57620005ee62000427565b5b620005fd8482850162000582565b91505092915050565b7f4e487b7100000000000000000000000000000000000000000000000000000000600052602260045260246000fd5b600060028204905060018216806200064e57607f821691505b6020821081141562000665576200066462000606565b5b50919050565b600081519050919050565b600082825260208201905092915050565b600062000694826200066b565b620006a0818562000676565b9350620006b281856020860162000501565b620006bd8162000436565b840191505092915050565b60006040820190508181036000830152620006e4818562000687565b90508181036020830152620006fa818462000687565b90509392505050565b614d2a80620007136000396000f3fe60806040526004361061019c5760003560e01c80636352211e116100ec578063b88d4fde1161008a578063c87b56dd11610064578063c87b56dd14610624578063e985e9c514610661578063f2c298be1461069e578063fb825e5f146106ba5761019c565b8063b88d4fde14610595578063bf40fac1146105be578063c1880a98146105fb5761019c565b80638f32d59b116100c65780638f32d59b146104d957806395d89b41146105045780639791c0971461052f578063a22cb4651461056c5761019c565b80636352211e1461043457806370a08231146104715780638da5cb5b146104ae5761019c565b8063264492351161015957806342842e0e1161013357806342842e0e146103545780634622ab031461037d578063524f3889146103ba578063541e771d146103f75761019c565b806326449235146102d55780632d551432146103125780633ccfd60b1461033d5761019c565b806301ffc9a7146101a157806306fdde03146101de578063081812fc14610209578063095ea7b31461024657806311dd88451461026f57806323b872dd146102ac575b600080fd5b3480156101ad57600080fd5b506101c860048036038101906101c39190612fe5565b6106e5565b6040516101d5919061302d565b60405180910390f35b3480156101ea57600080fd5b506101f36107c7565b60405161020091906130e1565b60405180910390f35b34801561021557600080fd5b50610230600480360381019061022b9190613139565b610859565b60405161023d91906131a7565b60405180910390f35b34801561025257600080fd5b5061026d600480360381019061026891906131ee565b6108de565b005b34801561027b57600080fd5b5061029660048036038101906102919190613293565b6109f6565b6040516102a391906130e1565b60405180910390f35b3480156102b857600080fd5b506102d360048036038101906102ce91906132e0565b610aa9565b005b3480156102e157600080fd5b506102fc60048036038101906102f79190613463565b610b09565b60405161030991906131a7565b60405180910390f35b34801561031e57600080fd5b50610327610b52565b60405161033491906130e1565b60405180910390f35b34801561034957600080fd5b50610352610be0565b005b34801561036057600080fd5b5061037b600480360381019061037691906132e0565b610ca6565b005b34801561038957600080fd5b506103a4600480360381019061039f9190613139565b610cc6565b6040516103b191906130e1565b60405180910390f35b3480156103c657600080fd5b506103e160048036038101906103dc9190613293565b610d66565b6040516103ee91906134bb565b60405180910390f35b34801561040357600080fd5b5061041e60048036038101906104199190613463565b610e5c565b60405161042b91906130e1565b60405180910390f35b34801561044057600080fd5b5061045b60048036038101906104569190613139565b610f12565b60405161046891906131a7565b60405180910390f35b34801561047d57600080fd5b50610498600480360381019061049391906134d6565b610fc4565b6040516104a591906134bb565b60405180910390f35b3480156104ba57600080fd5b506104c361107c565b6040516104d09190613524565b60405180910390f35b3480156104e557600080fd5b506104ee6110a2565b6040516104fb919061302d565b60405180910390f35b34801561051057600080fd5b506105196110fa565b60405161052691906130e1565b60405180910390f35b34801561053b57600080fd5b5061055660048036038101906105519190613293565b61118c565b604051610563919061302d565b60405180910390f35b34801561057857600080fd5b50610593600480360381019061058e919061356b565b611240565b005b3480156105a157600080fd5b506105bc60048036038101906105b7919061364c565b611256565b005b3480156105ca57600080fd5b506105e560048036038101906105e09190613293565b6112b8565b6040516105f291906131a7565b60405180910390f35b34801561060757600080fd5b50610622600480360381019061061d91906136cf565b611303565b005b34801561063057600080fd5b5061064b60048036038101906106469190613139565b6113de565b60405161065891906130e1565b60405180910390f35b34801561066d57600080fd5b5061068860048036038101906106839190613750565b611530565b604051610695919061302d565b60405180910390f35b6106b860048036038101906106b39190613293565b6115c4565b005b3480156106c657600080fd5b506106cf6119c0565b6040516106dc919061389c565b60405180910390f35b60007f80ac58cd000000000000000000000000000000000000000000000000000000007bffffffffffffffffffffffffffffffffffffffffffffffffffffffff1916827bffffffffffffffffffffffffffffffffffffffffffffffffffffffff191614806107b057507f5b5e139f000000000000000000000000000000000000000000000000000000007bffffffffffffffffffffffffffffffffffffffffffffffffffffffff1916827bffffffffffffffffffffffffffffffffffffffffffffffffffffffff1916145b806107c057506107bf82611ba2565b5b9050919050565b6060600080546107d6906138ed565b80601f0160208091040260200160405190810160405280929190818152602001828054610802906138ed565b801561084f5780601f106108245761010080835404028352916020019161084f565b820191906000526020600020905b81548152906001019060200180831161083257829003601f168201915b5050505050905090565b600061086482611c0c565b6108a3576040517f08c379a000000000000000000000000000000000000000000000000000000000815260040161089a90613991565b60405180910390fd5b6004600083815260200190815260200160002060009054906101000a900473ffffffffffffffffffffffffffffffffffffffff169050919050565b60006108e982610f12565b90508073ffffffffffffffffffffffffffffffffffffffff168373ffffffffffffffffffffffffffffffffffffffff16141561095a576040517f08c379a000000000000000000000000000000000000000000000000000000000815260040161095190613a23565b60405180910390fd5b8073ffffffffffffffffffffffffffffffffffffffff16610979611c78565b73ffffffffffffffffffffffffffffffffffffffff1614806109a857506109a7816109a2611c78565b611530565b5b6109e7576040517f08c379a00000000000000000000000000000000000000000000000000000000081526004016109de90613ab5565b60405180910390fd5b6109f18383611c80565b505050565b6060600d8383604051610a0a929190613b05565b90815260200160405180910390208054610a23906138ed565b80601f0160208091040260200160405190810160405280929190818152602001828054610a4f906138ed565b8015610a9c5780601f10610a7157610100808354040283529160200191610a9c565b820191906000526020600020905b815481529060010190602001808311610a7f57829003601f168201915b5050505050905092915050565b610aba610ab4611c78565b82611d39565b610af9576040517f08c379a0000000000000000000000000000000000000000000000000000000008152600401610af090613b90565b60405180910390fd5b610b04838383611e17565b505050565b600c818051602081018201805184825260208301602085012081835280955050505050506000915054906101000a900473ffffffffffffffffffffffffffffffffffffffff1681565b60098054610b5f906138ed565b80601f0160208091040260200160405190810160405280929190818152602001828054610b8b906138ed565b8015610bd85780601f10610bad57610100808354040283529160200191610bd8565b820191906000526020600020905b815481529060010190602001808311610bbb57829003601f168201915b505050505081565b610be86110a2565b610bf157600080fd5b600047905060003373ffffffffffffffffffffffffffffffffffffffff1682604051610c1c90613be1565b60006040518083038185875af1925050503d8060008114610c59576040519150601f19603f3d011682016040523d82523d6000602084013e610c5e565b606091505b5050905080610ca2576040517f08c379a0000000000000000000000000000000000000000000000000000000008152600401610c9990613c42565b60405180910390fd5b5050565b610cc183838360405180602001604052806000815250611256565b505050565b600e6020528060005260406000206000915090508054610ce5906138ed565b80601f0160208091040260200160405190810160405280929190818152602001828054610d11906138ed565b8015610d5e5780601f10610d3357610100808354040283529160200191610d5e565b820191906000526020600020905b815481529060010190602001808311610d4157829003601f168201915b505050505081565b600080610db684848080601f016020809104026020016040519081016040528093929190818152602001838380828437600081840152601f19601f8201169050808301925050505050505061207e565b905060008111610dfb576040517f08c379a0000000000000000000000000000000000000000000000000000000008152600401610df290613cd4565b60405180910390fd5b6001811415610e155767058d15e176280000915050610e56565b6002811415610e2f57670429d069189e0000915050610e56565b6003811415610e49576702c68af0bb140000915050610e56565b67016345785d8a00009150505b92915050565b600d818051602081018201805184825260208301602085012081835280955050505050506000915090508054610e91906138ed565b80601f0160208091040260200160405190810160405280929190818152602001828054610ebd906138ed565b8015610f0a5780601f10610edf57610100808354040283529160200191610f0a565b820191906000526020600020905b815481529060010190602001808311610eed57829003601f168201915b505050505081565b6000806002600084815260200190815260200160002060009054906101000a900473ffffffffffffffffffffffffffffffffffffffff169050600073ffffffffffffffffffffffffffffffffffffffff168173ffffffffffffffffffffffffffffffffffffffff161415610fbb576040517f08c379a0000000000000000000000000000000000000000000000000000000008152600401610fb290613d66565b60405180910390fd5b80915050919050565b60008073ffffffffffffffffffffffffffffffffffffffff168273ffffffffffffffffffffffffffffffffffffffff161415611035576040517f08c379a000000000000000000000000000000000000000000000000000000000815260040161102c90613df8565b60405180910390fd5b600360008373ffffffffffffffffffffffffffffffffffffffff1673ffffffffffffffffffffffffffffffffffffffff168152602001908152602001600020549050919050565b600760009054906101000a900473ffffffffffffffffffffffffffffffffffffffff1681565b6000600760009054906101000a900473ffffffffffffffffffffffffffffffffffffffff1673ffffffffffffffffffffffffffffffffffffffff163373ffffffffffffffffffffffffffffffffffffffff1614905090565b606060018054611109906138ed565b80601f0160208091040260200160405190810160405280929190818152602001828054611135906138ed565b80156111825780601f1061115757610100808354040283529160200191611182565b820191906000526020600020905b81548152906001019060200180831161116557829003601f168201915b5050505050905090565b600060016111dd84848080601f016020809104026020016040519081016040528093929190818152602001838380828437600081840152601f19601f8201169050808301925050505050505061207e565b101580156112385750600a61123584848080601f016020809104026020016040519081016040528093929190818152602001838380828437600081840152601f19601f8201169050808301925050505050505061207e565b11155b905092915050565b61125261124b611c78565b8383612233565b5050565b611267611261611c78565b83611d39565b6112a6576040517f08c379a000000000000000000000000000000000000000000000000000000000815260040161129d90613b90565b60405180910390fd5b6112b2848484846123a0565b50505050565b6000600c83836040516112cc929190613b05565b908152602001604051809103902060009054906101000a900473ffffffffffffffffffffffffffffffffffffffff16905092915050565b600c8484604051611315929190613b05565b908152602001604051809103902060009054906101000a900473ffffffffffffffffffffffffffffffffffffffff1673ffffffffffffffffffffffffffffffffffffffff163373ffffffffffffffffffffffffffffffffffffffff16146113a8576040517f82b4290000000000000000000000000000000000000000000000000000000000815260040160405180910390fd5b8181600d86866040516113bc929190613b05565b908152602001604051809103902091906113d7929190612e50565b5050505050565b60606113e982611c0c565b611428576040517f08c379a000000000000000000000000000000000000000000000000000000000815260040161141f90613e8a565b60405180910390fd5b6000600660008481526020019081526020016000208054611448906138ed565b80601f0160208091040260200160405190810160405280929190818152602001828054611474906138ed565b80156114c15780601f10611496576101008083540402835291602001916114c1565b820191906000526020600020905b8154815290600101906020018083116114a457829003601f168201915b5050505050905060006114d26123fc565b90506000815114156114e857819250505061152b565b60008251111561151d578082604051602001611505929190613edb565b6040516020818303038152906040529250505061152b565b61152684612413565b925050505b919050565b6000600560008473ffffffffffffffffffffffffffffffffffffffff1673ffffffffffffffffffffffffffffffffffffffff16815260200190815260200160002060008373ffffffffffffffffffffffffffffffffffffffff1673ffffffffffffffffffffffffffffffffffffffff16815260200190815260200160002060009054906101000a900460ff16905092915050565b600073ffffffffffffffffffffffffffffffffffffffff16600c83836040516115ee929190613b05565b908152602001604051809103902060009054906101000a900473ffffffffffffffffffffffffffffffffffffffff1673ffffffffffffffffffffffffffffffffffffffff161461166a576040517f3a81d6fc00000000000000000000000000000000000000000000000000000000815260040160405180910390fd5b611674828261118c565b6116b75781816040517f7f19f48d0000000000000000000000000000000000000000000000000000000081526004016116ae929190613f2c565b60405180910390fd5b60006116c38383610d66565b905080341015611708576040517f08c379a00000000000000000000000000000000000000000000000000000000081526004016116ff90613f9c565b60405180910390fd5b6000838360096040516020016117209392919061409c565b60405160208183030381529060405290506000600a82600b60405160200161174a939291906140cd565b6040516020818303038152906040529050600061176760086124ba565b905060006117b887878080601f016020809104026020016040519081016040528093929190818152602001838380828437600081840152601f19601f8201169050808301925050505050505061207e565b905060006117c5826124c8565b905061182e6040518060800160405280604f8152602001614c74604f9139848a8a8080601f016020809104026020016040519081016040528093929190818152602001838380828437600081840152601f19601f82011690508083019250505050505050612629565b6000611864868361183e886126c8565b604051602001611850939291906142ec565b6040516020818303038152906040526126c8565b905060008160405160200161187991906143b6565b60405160208183030381529060405290506118ab604051806060016040528060328152602001614cc360329139612860565b6118b481612860565b6118d5604051806060016040528060328152602001614cc360329139612860565b6118df33866128f9565b6118e98582612917565b33600c8b8b6040516118fc929190613b05565b908152602001604051809103902060006101000a81548173ffffffffffffffffffffffffffffffffffffffff021916908373ffffffffffffffffffffffffffffffffffffffff1602179055508989600e6000888152602001908152602001600020919061196a929190612e50565b506119aa6040518060400160405280601b81526020017f2573206861732072656769737465726564206120646f6d61696e2e00000000008152503361298b565b6119b46008612a27565b50505050505050505050565b606060006119ce60086124ba565b67ffffffffffffffff8111156119e7576119e6613338565b5b604051908082528060200260200182016040528015611a1a57816020015b6060815260200190600190039081611a055790505b50905060005b611a2a60086124ba565b811015611afe57600e60008281526020019081526020016000208054611a4f906138ed565b80601f0160208091040260200160405190810160405280929190818152602001828054611a7b906138ed565b8015611ac85780601f10611a9d57610100808354040283529160200191611ac8565b820191906000526020600020905b815481529060010190602001808311611aab57829003601f168201915b5050505050828281518110611ae057611adf6143d8565b5b60200260200101819052508080611af690614436565b915050611a20565b508091505090565b611b9e8282604051602401611b1c92919061447f565b6040516020818303038152906040527f4b5c4277000000000000000000000000000000000000000000000000000000007bffffffffffffffffffffffffffffffffffffffffffffffffffffffff19166020820180517bffffffffffffffffffffffffffffffffffffffffffffffffffffffff8381831617835250505050612a3d565b5050565b60007f01ffc9a7000000000000000000000000000000000000000000000000000000007bffffffffffffffffffffffffffffffffffffffffffffffffffffffff1916827bffffffffffffffffffffffffffffffffffffffffffffffffffffffff1916149050919050565b60008073ffffffffffffffffffffffffffffffffffffffff166002600084815260200190815260200160002060009054906101000a900473ffffffffffffffffffffffffffffffffffffffff1673ffffffffffffffffffffffffffffffffffffffff1614159050919050565b600033905090565b816004600083815260200190815260200160002060006101000a81548173ffffffffffffffffffffffffffffffffffffffff021916908373ffffffffffffffffffffffffffffffffffffffff160217905550808273ffffffffffffffffffffffffffffffffffffffff16611cf383610f12565b73ffffffffffffffffffffffffffffffffffffffff167f8c5be1e5ebec7d5bd14f71427d1e84f3dd0314c0f7b2291e5b200ac8c7c3b92560405160405180910390a45050565b6000611d4482611c0c565b611d83576040517f08c379a0000000000000000000000000000000000000000000000000000000008152600401611d7a90614528565b60405180910390fd5b6000611d8e83610f12565b90508073ffffffffffffffffffffffffffffffffffffffff168473ffffffffffffffffffffffffffffffffffffffff161480611dfd57508373ffffffffffffffffffffffffffffffffffffffff16611de584610859565b73ffffffffffffffffffffffffffffffffffffffff16145b80611e0e5750611e0d8185611530565b5b91505092915050565b8273ffffffffffffffffffffffffffffffffffffffff16611e3782610f12565b73ffffffffffffffffffffffffffffffffffffffff1614611e8d576040517f08c379a0000000000000000000000000000000000000000000000000000000008152600401611e84906145ba565b60405180910390fd5b600073ffffffffffffffffffffffffffffffffffffffff168273ffffffffffffffffffffffffffffffffffffffff161415611efd576040517f08c379a0000000000000000000000000000000000000000000000000000000008152600401611ef49061464c565b60405180910390fd5b611f08838383612a66565b611f13600082611c80565b6001600360008573ffffffffffffffffffffffffffffffffffffffff1673ffffffffffffffffffffffffffffffffffffffff1681526020019081526020016000206000828254611f63919061466c565b925050819055506001600360008473ffffffffffffffffffffffffffffffffffffffff1673ffffffffffffffffffffffffffffffffffffffff1681526020019081526020016000206000828254611fba91906146a0565b92505081905550816002600083815260200190815260200160002060006101000a81548173ffffffffffffffffffffffffffffffffffffffff021916908373ffffffffffffffffffffffffffffffffffffffff160217905550808273ffffffffffffffffffffffffffffffffffffffff168473ffffffffffffffffffffffffffffffffffffffff167fddf252ad1be2c89b69c2b068fc378daa952ba7f163c4a11628f55a4df523b3ef60405160405180910390a4612079838383612a6b565b505050565b60008060008084519050600092505b808210156122285760008583815181106120aa576120a96143d8565b5b602001015160f81c60f81b9050608060f81b817effffffffffffffffffffffffffffffffffffffffffffffffffffffffffffff191610156120f9576001836120f291906146a0565b9250612214565b60e060f81b817effffffffffffffffffffffffffffffffffffffffffffffffffffffffffffff1916101561213b5760028361213491906146a0565b9250612213565b60f060f81b817effffffffffffffffffffffffffffffffffffffffffffffffffffffffffffff1916101561217d5760038361217691906146a0565b9250612212565b60f8801b817effffffffffffffffffffffffffffffffffffffffffffffffffffffffffffff191610156121be576004836121b791906146a0565b9250612211565b60fc60f81b817effffffffffffffffffffffffffffffffffffffffffffffffffffffffffffff19161015612200576005836121f991906146a0565b9250612210565b60068361220d91906146a0565b92505b5b5b5b5b50828061222090614436565b93505061208d565b829350505050919050565b8173ffffffffffffffffffffffffffffffffffffffff168373ffffffffffffffffffffffffffffffffffffffff1614156122a2576040517f08c379a000000000000000000000000000000000000000000000000000000000815260040161229990614742565b60405180910390fd5b80600560008573ffffffffffffffffffffffffffffffffffffffff1673ffffffffffffffffffffffffffffffffffffffff16815260200190815260200160002060008473ffffffffffffffffffffffffffffffffffffffff1673ffffffffffffffffffffffffffffffffffffffff16815260200190815260200160002060006101000a81548160ff0219169083151502179055508173ffffffffffffffffffffffffffffffffffffffff168373ffffffffffffffffffffffffffffffffffffffff167f17307eab39ab6107e8899845ad3d59bd9653f200f220920489ca2b5937696c3183604051612393919061302d565b60405180910390a3505050565b6123ab848484611e17565b6123b784848484612a70565b6123f6576040517f08c379a00000000000000000000000000000000000000000000000000000000081526004016123ed906147d4565b60405180910390fd5b50505050565b606060405180602001604052806000815250905090565b606061241e82611c0c565b61245d576040517f08c379a000000000000000000000000000000000000000000000000000000000815260040161245490614866565b60405180910390fd5b60006124676123fc565b9050600081511161248757604051806020016040528060008152506124b2565b80612491846124c8565b6040516020016124a2929190613edb565b6040516020818303038152906040525b915050919050565b600081600001549050919050565b60606000821415612510576040518060400160405280600181526020017f30000000000000000000000000000000000000000000000000000000000000008152509050612624565b600082905060005b6000821461254257808061252b90614436565b915050600a8261253b91906148b5565b9150612518565b60008167ffffffffffffffff81111561255e5761255d613338565b5b6040519080825280601f01601f1916602001820160405280156125905781602001600182028036833780820191505090505b5090505b6000851461261d576001826125a9919061466c565b9150600a856125b891906148e6565b60306125c491906146a0565b60f81b8183815181106125da576125d96143d8565b5b60200101907effffffffffffffffffffffffffffffffffffffffffffffffffffffffffffff1916908160001a905350600a8561261691906148b5565b9450612594565b8093505050505b919050565b6126c383838360405160240161264193929190614917565b6040516020818303038152906040527fa3f5c739000000000000000000000000000000000000000000000000000000007bffffffffffffffffffffffffffffffffffffffffffffffffffffffff19166020820180517bffffffffffffffffffffffffffffffffffffffffffffffffffffffff8381831617835250505050612a3d565b505050565b606060008251905060008114156126f1576040518060200160405280600081525091505061285b565b6000600360028361270291906146a0565b61270c91906148b5565b6004612718919061495c565b9050600060208261272991906146a0565b67ffffffffffffffff81111561274257612741613338565b5b6040519080825280601f01601f1916602001820160405280156127745781602001600182028036833780820191505090505b5090506000604051806060016040528060408152602001614c34604091399050600181016020830160005b868110156128185760038101905062ffffff818a015116603f8160121c168401518060081b905060ff603f83600c1c1686015116810190508060081b905060ff603f8360061c1686015116810190508060081b905060ff603f831686015116810190508060e01b9050808452600484019350505061279f565b50600386066001811461283257600281146128425761284d565b613d3d60f01b600283035261284d565b603d60f81b60018303525b508484525050819450505050505b919050565b6128f68160405160240161287491906130e1565b6040516020818303038152906040527f41304fac000000000000000000000000000000000000000000000000000000007bffffffffffffffffffffffffffffffffffffffffffffffffffffffff19166020820180517bffffffffffffffffffffffffffffffffffffffffffffffffffffffff8381831617835250505050612a3d565b50565b612913828260405180602001604052806000815250612bf8565b5050565b61292082611c0c565b61295f576040517f08c379a000000000000000000000000000000000000000000000000000000000815260040161295690614a28565b60405180910390fd5b80600660008481526020019081526020016000209080519060200190612986929190612ed6565b505050565b612a2382826040516024016129a1929190614a48565b6040516020818303038152906040527f319af333000000000000000000000000000000000000000000000000000000007bffffffffffffffffffffffffffffffffffffffffffffffffffffffff19166020820180517bffffffffffffffffffffffffffffffffffffffffffffffffffffffff8381831617835250505050612a3d565b5050565b6001816000016000828254019250508190555050565b60008151905060006a636f6e736f6c652e6c6f679050602083016000808483855afa5050505050565b505050565b505050565b6000612a918473ffffffffffffffffffffffffffffffffffffffff16612c53565b15612beb578373ffffffffffffffffffffffffffffffffffffffff1663150b7a02612aba611c78565b8786866040518563ffffffff1660e01b8152600401612adc9493929190614acd565b6020604051808303816000875af1925050508015612b1857506040513d601f19601f82011682018060405250810190612b159190614b2e565b60015b612b9b573d8060008114612b48576040519150601f19603f3d011682016040523d82523d6000602084013e612b4d565b606091505b50600081511415612b93576040517f08c379a0000000000000000000000000000000000000000000000000000000008152600401612b8a906147d4565b60405180910390fd5b805181602001fd5b63150b7a0260e01b7bffffffffffffffffffffffffffffffffffffffffffffffffffffffff1916817bffffffffffffffffffffffffffffffffffffffffffffffffffffffff191614915050612bf0565b600190505b949350505050565b612c028383612c76565b612c0f6000848484612a70565b612c4e576040517f08c379a0000000000000000000000000000000000000000000000000000000008152600401612c45906147d4565b60405180910390fd5b505050565b6000808273ffffffffffffffffffffffffffffffffffffffff163b119050919050565b600073ffffffffffffffffffffffffffffffffffffffff168273ffffffffffffffffffffffffffffffffffffffff161415612ce6576040517f08c379a0000000000000000000000000000000000000000000000000000000008152600401612cdd90614ba7565b60405180910390fd5b612cef81611c0c565b15612d2f576040517f08c379a0000000000000000000000000000000000000000000000000000000008152600401612d2690614c13565b60405180910390fd5b612d3b60008383612a66565b6001600360008473ffffffffffffffffffffffffffffffffffffffff1673ffffffffffffffffffffffffffffffffffffffff1681526020019081526020016000206000828254612d8b91906146a0565b92505081905550816002600083815260200190815260200160002060006101000a81548173ffffffffffffffffffffffffffffffffffffffff021916908373ffffffffffffffffffffffffffffffffffffffff160217905550808273ffffffffffffffffffffffffffffffffffffffff16600073ffffffffffffffffffffffffffffffffffffffff167fddf252ad1be2c89b69c2b068fc378daa952ba7f163c4a11628f55a4df523b3ef60405160405180910390a4612e4c60008383612a6b565b5050565b828054612e5c906138ed565b90600052602060002090601f016020900481019282612e7e5760008555612ec5565b82601f10612e9757803560ff1916838001178555612ec5565b82800160010185558215612ec5579182015b82811115612ec4578235825591602001919060010190612ea9565b5b509050612ed29190612f5c565b5090565b828054612ee2906138ed565b90600052602060002090601f016020900481019282612f045760008555612f4b565b82601f10612f1d57805160ff1916838001178555612f4b565b82800160010185558215612f4b579182015b82811115612f4a578251825591602001919060010190612f2f565b5b509050612f589190612f5c565b5090565b5b80821115612f75576000816000905550600101612f5d565b5090565b6000604051905090565b600080fd5b600080fd5b60007fffffffff0000000000000000000000000000000000000000000000000000000082169050919050565b612fc281612f8d565b8114612fcd57600080fd5b50565b600081359050612fdf81612fb9565b92915050565b600060208284031215612ffb57612ffa612f83565b5b600061300984828501612fd0565b91505092915050565b60008115159050919050565b61302781613012565b82525050565b6000602082019050613042600083018461301e565b92915050565b600081519050919050565b600082825260208201905092915050565b60005b83811015613082578082015181840152602081019050613067565b83811115613091576000848401525b50505050565b6000601f19601f8301169050919050565b60006130b382613048565b6130bd8185613053565b93506130cd818560208601613064565b6130d681613097565b840191505092915050565b600060208201905081810360008301526130fb81846130a8565b905092915050565b6000819050919050565b61311681613103565b811461312157600080fd5b50565b6000813590506131338161310d565b92915050565b60006020828403121561314f5761314e612f83565b5b600061315d84828501613124565b91505092915050565b600073ffffffffffffffffffffffffffffffffffffffff82169050919050565b600061319182613166565b9050919050565b6131a181613186565b82525050565b60006020820190506131bc6000830184613198565b92915050565b6131cb81613186565b81146131d657600080fd5b50565b6000813590506131e8816131c2565b92915050565b6000806040838503121561320557613204612f83565b5b6000613213858286016131d9565b925050602061322485828601613124565b9150509250929050565b600080fd5b600080fd5b600080fd5b60008083601f8401126132535761325261322e565b5b8235905067ffffffffffffffff8111156132705761326f613233565b5b60208301915083600182028301111561328c5761328b613238565b5b9250929050565b600080602083850312156132aa576132a9612f83565b5b600083013567ffffffffffffffff8111156132c8576132c7612f88565b5b6132d48582860161323d565b92509250509250929050565b6000806000606084860312156132f9576132f8612f83565b5b6000613307868287016131d9565b9350506020613318868287016131d9565b925050604061332986828701613124565b9150509250925092565b600080fd5b7f4e487b7100000000000000000000000000000000000000000000000000000000600052604160045260246000fd5b61337082613097565b810181811067ffffffffffffffff8211171561338f5761338e613338565b5b80604052505050565b60006133a2612f79565b90506133ae8282613367565b919050565b600067ffffffffffffffff8211156133ce576133cd613338565b5b6133d782613097565b9050602081019050919050565b82818337600083830152505050565b6000613406613401846133b3565b613398565b90508281526020810184848401111561342257613421613333565b5b61342d8482856133e4565b509392505050565b600082601f83011261344a5761344961322e565b5b813561345a8482602086016133f3565b91505092915050565b60006020828403121561347957613478612f83565b5b600082013567ffffffffffffffff81111561349757613496612f88565b5b6134a384828501613435565b91505092915050565b6134b581613103565b82525050565b60006020820190506134d060008301846134ac565b92915050565b6000602082840312156134ec576134eb612f83565b5b60006134fa848285016131d9565b91505092915050565b600061350e82613166565b9050919050565b61351e81613503565b82525050565b60006020820190506135396000830184613515565b92915050565b61354881613012565b811461355357600080fd5b50565b6000813590506135658161353f565b92915050565b6000806040838503121561358257613581612f83565b5b6000613590858286016131d9565b92505060206135a185828601613556565b9150509250929050565b600067ffffffffffffffff8211156135c6576135c5613338565b5b6135cf82613097565b9050602081019050919050565b60006135ef6135ea846135ab565b613398565b90508281526020810184848401111561360b5761360a613333565b5b6136168482856133e4565b509392505050565b600082601f8301126136335761363261322e565b5b81356136438482602086016135dc565b91505092915050565b6000806000806080858703121561366657613665612f83565b5b6000613674878288016131d9565b9450506020613685878288016131d9565b935050604061369687828801613124565b925050606085013567ffffffffffffffff8111156136b7576136b6612f88565b5b6136c38782880161361e565b91505092959194509250565b600080600080604085870312156136e9576136e8612f83565b5b600085013567ffffffffffffffff81111561370757613706612f88565b5b6137138782880161323d565b9450945050602085013567ffffffffffffffff81111561373657613735612f88565b5b6137428782880161323d565b925092505092959194509250565b6000806040838503121561376757613766612f83565b5b6000613775858286016131d9565b9250506020613786858286016131d9565b9150509250929050565b600081519050919050565b600082825260208201905092915050565b6000819050602082019050919050565b600082825260208201905092915050565b60006137d882613048565b6137e281856137bc565b93506137f2818560208601613064565b6137fb81613097565b840191505092915050565b600061381283836137cd565b905092915050565b6000602082019050919050565b600061383282613790565b61383c818561379b565b93508360208202850161384e856137ac565b8060005b8581101561388a578484038952815161386b8582613806565b94506138768361381a565b925060208a01995050600181019050613852565b50829750879550505050505092915050565b600060208201905081810360008301526138b68184613827565b905092915050565b7f4e487b7100000000000000000000000000000000000000000000000000000000600052602260045260246000fd5b6000600282049050600182168061390557607f821691505b60208210811415613919576139186138be565b5b50919050565b7f4552433732313a20617070726f76656420717565727920666f72206e6f6e657860008201527f697374656e7420746f6b656e0000000000000000000000000000000000000000602082015250565b600061397b602c83613053565b91506139868261391f565b604082019050919050565b600060208201905081810360008301526139aa8161396e565b9050919050565b7f4552433732313a20617070726f76616c20746f2063757272656e74206f776e6560008201527f7200000000000000000000000000000000000000000000000000000000000000602082015250565b6000613a0d602183613053565b9150613a18826139b1565b604082019050919050565b60006020820190508181036000830152613a3c81613a00565b9050919050565b7f4552433732313a20617070726f76652063616c6c6572206973206e6f74206f7760008201527f6e6572206e6f7220617070726f76656420666f7220616c6c0000000000000000602082015250565b6000613a9f603883613053565b9150613aaa82613a43565b604082019050919050565b60006020820190508181036000830152613ace81613a92565b9050919050565b600081905092915050565b6000613aec8385613ad5565b9350613af98385846133e4565b82840190509392505050565b6000613b12828486613ae0565b91508190509392505050565b7f4552433732313a207472616e736665722063616c6c6572206973206e6f74206f60008201527f776e6572206e6f7220617070726f766564000000000000000000000000000000602082015250565b6000613b7a603183613053565b9150613b8582613b1e565b604082019050919050565b60006020820190508181036000830152613ba981613b6d565b9050919050565b600081905092915050565b50565b6000613bcb600083613bb0565b9150613bd682613bbb565b600082019050919050565b6000613bec82613bbe565b9150819050919050565b7f6661696c656420746f20776974686461772066756e64732e0000000000000000600082015250565b6000613c2c601883613053565b9150613c3782613bf6565b602082019050919050565b60006020820190508181036000830152613c5b81613c1f565b9050919050565b7f646f6d61696e206c656e677468206d757374206265206d6f7265207468616e2060008201527f7a65726f2e000000000000000000000000000000000000000000000000000000602082015250565b6000613cbe602583613053565b9150613cc982613c62565b604082019050919050565b60006020820190508181036000830152613ced81613cb1565b9050919050565b7f4552433732313a206f776e657220717565727920666f72206e6f6e657869737460008201527f656e7420746f6b656e0000000000000000000000000000000000000000000000602082015250565b6000613d50602983613053565b9150613d5b82613cf4565b604082019050919050565b60006020820190508181036000830152613d7f81613d43565b9050919050565b7f4552433732313a2062616c616e636520717565727920666f7220746865207a6560008201527f726f206164647265737300000000000000000000000000000000000000000000602082015250565b6000613de2602a83613053565b9150613ded82613d86565b604082019050919050565b60006020820190508181036000830152613e1181613dd5565b9050919050565b7f45524337323155524953746f726167653a2055524920717565727920666f722060008201527f6e6f6e6578697374656e7420746f6b656e000000000000000000000000000000602082015250565b6000613e74603183613053565b9150613e7f82613e18565b604082019050919050565b60006020820190508181036000830152613ea381613e67565b9050919050565b6000613eb582613048565b613ebf8185613ad5565b9350613ecf818560208601613064565b80840191505092915050565b6000613ee78285613eaa565b9150613ef38284613eaa565b91508190509392505050565b6000613f0b8385613053565b9350613f188385846133e4565b613f2183613097565b840190509392505050565b60006020820190508181036000830152613f47818486613eff565b90509392505050565b7f6e6f7420656e6f756768206d6174696320706169642e00000000000000000000600082015250565b6000613f86601683613053565b9150613f9182613f50565b602082019050919050565b60006020820190508181036000830152613fb581613f79565b9050919050565b7f2e00000000000000000000000000000000000000000000000000000000000000600082015250565b6000613ff2600183613ad5565b9150613ffd82613fbc565b600182019050919050565b60008190508160005260206000209050919050565b6000815461402a816138ed565b6140348186613ad5565b9450600182166000811461404f576001811461406057614093565b60ff19831686528186019350614093565b61406985614008565b60005b8381101561408b5781548189015260018201915060208101905061406c565b838801955050505b50505092915050565b60006140a9828587613ae0565b91506140b482613fe5565b91506140c0828461401d565b9150819050949350505050565b60006140d9828661401d565b91506140e58285613eaa565b91506140f1828461401d565b9150819050949350505050565b7f7b226e616d65223a202200000000000000000000000000000000000000000000600082015250565b6000614134600a83613ad5565b915061413f826140fe565b600a82019050919050565b7f222c000000000000000000000000000000000000000000000000000000000000600082015250565b6000614180600283613ad5565b915061418b8261414a565b600282019050919050565b7f226465736372697074696f6e223a20222e706f7461746f20646f6d61696e222c600082015250565b60006141cc602083613ad5565b91506141d782614196565b602082019050919050565b7f226c656e677468223a2022000000000000000000000000000000000000000000600082015250565b6000614218600b83613ad5565b9150614223826141e2565b600b82019050919050565b7f22696d616765223a2022646174613a696d6167652f7376672b786d6c3b62617360008201527f6536342c00000000000000000000000000000000000000000000000000000000602082015250565b600061428a602483613ad5565b91506142958261422e565b602482019050919050565b7f227d000000000000000000000000000000000000000000000000000000000000600082015250565b60006142d6600283613ad5565b91506142e1826142a0565b600282019050919050565b60006142f782614127565b91506143038286613eaa565b915061430e82614173565b9150614319826141bf565b91506143248261420b565b91506143308285613eaa565b915061433b82614173565b91506143468261427d565b91506143528284613eaa565b915061435d826142c9565b9150819050949350505050565b7f646174613a6170706c69636174696f6e2f6a736f6e3b6261736536342c000000600082015250565b60006143a0601d83613ad5565b91506143ab8261436a565b601d82019050919050565b60006143c182614393565b91506143cd8284613eaa565b915081905092915050565b7f4e487b7100000000000000000000000000000000000000000000000000000000600052603260045260246000fd5b7f4e487b7100000000000000000000000000000000000000000000000000000000600052601160045260246000fd5b600061444182613103565b91507fffffffffffffffffffffffffffffffffffffffffffffffffffffffffffffffff82141561447457614473614407565b5b600182019050919050565b6000604082019050818103600083015261449981856130a8565b905081810360208301526144ad81846130a8565b90509392505050565b7f4552433732313a206f70657261746f7220717565727920666f72206e6f6e657860008201527f697374656e7420746f6b656e0000000000000000000000000000000000000000602082015250565b6000614512602c83613053565b915061451d826144b6565b604082019050919050565b6000602082019050818103600083015261454181614505565b9050919050565b7f4552433732313a207472616e736665722066726f6d20696e636f72726563742060008201527f6f776e6572000000000000000000000000000000000000000000000000000000602082015250565b60006145a4602583613053565b91506145af82614548565b604082019050919050565b600060208201905081810360008301526145d381614597565b9050919050565b7f4552433732313a207472616e7366657220746f20746865207a65726f2061646460008201527f7265737300000000000000000000000000000000000000000000000000000000602082015250565b6000614636602483613053565b9150614641826145da565b604082019050919050565b6000602082019050818103600083015261466581614629565b9050919050565b600061467782613103565b915061468283613103565b92508282101561469557614694614407565b5b828203905092915050565b60006146ab82613103565b91506146b683613103565b9250827fffffffffffffffffffffffffffffffffffffffffffffffffffffffffffffffff038211156146eb576146ea614407565b5b828201905092915050565b7f4552433732313a20617070726f766520746f2063616c6c657200000000000000600082015250565b600061472c601983613053565b9150614737826146f6565b602082019050919050565b6000602082019050818103600083015261475b8161471f565b9050919050565b7f4552433732313a207472616e7366657220746f206e6f6e20455243373231526560008201527f63656976657220696d706c656d656e7465720000000000000000000000000000602082015250565b60006147be603283613053565b91506147c982614762565b604082019050919050565b600060208201905081810360008301526147ed816147b1565b9050919050565b7f4552433732314d657461646174613a2055524920717565727920666f72206e6f60008201527f6e6578697374656e7420746f6b656e0000000000000000000000000000000000602082015250565b6000614850602f83613053565b915061485b826147f4565b604082019050919050565b6000602082019050818103600083015261487f81614843565b9050919050565b7f4e487b7100000000000000000000000000000000000000000000000000000000600052601260045260246000fd5b60006148c082613103565b91506148cb83613103565b9250826148db576148da614886565b5b828204905092915050565b60006148f182613103565b91506148fc83613103565b92508261490c5761490b614886565b5b828206905092915050565b6000606082019050818103600083015261493181866130a8565b905061494060208301856134ac565b818103604083015261495281846130a8565b9050949350505050565b600061496782613103565b915061497283613103565b9250817fffffffffffffffffffffffffffffffffffffffffffffffffffffffffffffffff04831182151516156149ab576149aa614407565b5b828202905092915050565b7f45524337323155524953746f726167653a2055524920736574206f66206e6f6e60008201527f6578697374656e7420746f6b656e000000000000000000000000000000000000602082015250565b6000614a12602e83613053565b9150614a1d826149b6565b604082019050919050565b60006020820190508181036000830152614a4181614a05565b9050919050565b60006040820190508181036000830152614a6281856130a8565b9050614a716020830184613198565b9392505050565b600081519050919050565b600082825260208201905092915050565b6000614a9f82614a78565b614aa98185614a83565b9350614ab9818560208601613064565b614ac281613097565b840191505092915050565b6000608082019050614ae26000830187613198565b614aef6020830186613198565b614afc60408301856134ac565b8181036060830152614b0e8184614a94565b905095945050505050565b600081519050614b2881612fb9565b92915050565b600060208284031215614b4457614b43612f83565b5b6000614b5284828501614b19565b91505092915050565b7f4552433732313a206d696e7420746f20746865207a65726f2061646472657373600082015250565b6000614b91602083613053565b9150614b9c82614b5b565b602082019050919050565b60006020820190508181036000830152614bc081614b84565b9050919050565b7f4552433732313a20746f6b656e20616c7265616479206d696e74656400000000600082015250565b6000614bfd601c83613053565b9150614c0882614bc7565b602082019050919050565b60006020820190508181036000830152614c2c81614bf0565b905091905056fe4142434445464748494a4b4c4d4e4f505152535455565758595a6162636465666768696a6b6c6d6e6f707172737475767778797a303132333435363738392b2f4120746f6b656e2077697468206964656e74696669657220257320616e64206e616d6520257320697320676f696e6720746f206265207265676973746564206f6e2074686520636f6e74726163742e0a2a2a2a2a2a2a2a2a2a2a2a2a2a2a2a2a2a2a2a2a2a2a2a2a2a2a2a2a2a2a2a2a2a2a2a2a2a2a2a2a2a2a2a2a2a2a2a2a2aa2646970667358221220bbc1a45da7ee4c903b2842e4fba91745f43d2a9ec4e2b159bfcaa0305bbf0c7c64736f6c634300080a00333c73766720786d6c6e733d22687474703a2f2f7777772e77332e6f72672f323030302f737667222077696474683d2232373022206865696768743d22323730222066696c6c3d226e6f6e65223e3c706174682066696c6c3d2275726c282342292220643d224d302030683237307632373048307a222f3e3c646566733e3c66696c7465722069643d22412220636f6c6f722d696e746572706f6c6174696f6e2d66696c746572733d2273524742222066696c746572556e6974733d227573657253706163654f6e55736522206865696768743d22323730222077696474683d22323730223e3c666544726f70536861646f772064783d2230222064793d22312220737464446576696174696f6e3d22322220666c6f6f642d6f7061636974793d222e323235222077696474683d223230302522206865696768743d2232303025222f3e3c2f66696c7465723e3c2f646566733e3c7061746820643d224d37322e3836332034322e393439632d2e3636382d2e3338372d312e3432362d2e35392d322e3139372d2e3539732d312e3532392e3230342d322e3139372e35396c2d31302e30383120362e3033322d362e383520332e3933342d31302e30383120362e303332632d2e3636382e3338372d312e3432362e35392d322e3139372e3539732d312e3532392d2e3230342d322e3139372d2e35396c2d382e3031332d342e37323161342e353220342e35322030203020312d312e3538392d312e363136632d2e3338342d2e3636352d2e3539342d312e3431382d2e3630382d322e313837762d392e3331632d2e3031332d2e3737352e3138352d312e3533382e3537322d322e32303861342e323520342e323520302030203120312e3632352d312e3539356c372e3838342d342e3539632e3636382d2e33383720312e3432362d2e353920322e3139372d2e353973312e3532392e32303420322e3139372e35396c372e38383420342e353961342e353220342e353220302030203120312e35383920312e363136632e3338342e3636352e35393420312e3431382e36303820322e31383776362e3033326c362e38352d342e303635762d362e303332632e3031332d2e3737352d2e3138352d312e3533382d2e3537322d322e32303861342e323520342e32352030203020302d312e3632352d312e3539354c34312e3435362032342e3539632d2e3636382d2e3338372d312e3432362d2e35392d322e3139372d2e3539732d312e3532392e3230342d322e3139372e35396c2d31342e38363420382e36353561342e323520342e32352030203020302d312e36323520312e353935632d2e3338372e36372d2e35383520312e3433342d2e35373220322e3230387631372e343431632d2e3031332e3737352e31383520312e3533382e35373220322e32303861342e323520342e323520302030203020312e36323520312e3539356c31342e38363420382e363535632e3636382e33383720312e3432362e353920322e3139372e353973312e3532392d2e32303420322e3139372d2e35396c31302e3038312d352e39303120362e38352d342e3036352031302e3038312d352e393031632e3636382d2e33383720312e3432362d2e353920322e3139372d2e353973312e3532392e32303420322e3139372e35396c372e38383420342e353961342e353220342e353220302030203120312e35383920312e363136632e3338342e3636352e35393420312e3431382e36303820322e31383776392e333131632e3031332e3737352d2e31383520312e3533382d2e35373220322e32303861342e323520342e32352030203020312d312e36323520312e3539356c2d372e38383420342e373231632d2e3636382e3338372d312e3432362e35392d322e3139372e3539732d312e3532392d2e3230342d322e3139372d2e35396c2d372e3838342d342e353961342e353220342e35322030203020312d312e3538392d312e363136632d2e3338352d2e3636352d2e3539342d312e3431382d2e3630382d322e313837762d362e3033326c2d362e383520342e30363576362e303332632d2e3031332e3737352e31383520312e3533382e35373220322e32303861342e323520342e323520302030203020312e36323520312e3539356c31342e38363420382e363535632e3636382e33383720312e3432362e353920322e3139372e353973312e3532392d2e32303420322e3139372d2e35396c31342e3836342d382e363535632e3635372d2e33393420312e3230342d2e393520312e3538392d312e363136732e3539342d312e3431382e3630392d322e3138375635352e353338632e3031332d2e3737352d2e3138352d312e3533382d2e3537322d322e32303861342e323520342e32352030203020302d312e3632352d312e3539356c2d31342e3939332d382e3738367a222066696c6c3d2223666666222f3e3c646566733e3c6c696e6561724772616469656e742069643d2242222078313d2230222079313d2230222078323d22323730222079323d2232373022206772616469656e74556e6974733d227573657253706163654f6e557365223e3c73746f702073746f702d636f6c6f723d2223636235656565222f3e3c73746f70206f66667365743d2231222073746f702d636f6c6f723d2223306364376534222073746f702d6f7061636974793d222e3939222f3e3c2f6c696e6561724772616469656e743e3c2f646566733e3c7465787420783d2233322e352220793d223233312220666f6e742d73697a653d223237222066696c6c3d2223666666222066696c7465723d2275726c282341292220666f6e742d66616d696c793d22506c7573204a616b617274612053616e732c44656a6156752053616e732c4e6f746f20436f6c6f7220456d6f6a692c4170706c6520436f6c6f7220456d6f6a692c73616e732d73657269662220666f6e742d7765696768743d22626f6c64223e",
  "linkReferences": {},
  "deployedLinkReferences": {}
}